{
  "abi": [
    {
      "inputs": [],
      "stateMutability": "nonpayable",
      "type": "constructor"
    },
    {
      "anonymous": false,
      "inputs": [
        {
          "indexed": true,
          "internalType": "bytes32",
          "name": "groupId",
          "type": "bytes32"
        },
        {
          "indexed": false,
          "internalType": "bytes",
          "name": "publicKey",
          "type": "bytes"
        }
      ],
      "name": "KeyGenerated",
      "type": "event"
    },
    {
      "anonymous": false,
      "inputs": [
        {
          "indexed": true,
          "internalType": "bytes32",
          "name": "groupId",
          "type": "bytes32"
        }
      ],
      "name": "KeygenRequestAdded",
      "type": "event"
    },
    {
      "anonymous": false,
      "inputs": [
        {
          "indexed": true,
          "internalType": "bytes",
          "name": "publicKey",
          "type": "bytes"
        },
        {
          "indexed": false,
          "internalType": "bytes32",
          "name": "groupId",
          "type": "bytes32"
        },
        {
          "indexed": false,
          "internalType": "uint256",
          "name": "index",
          "type": "uint256"
        }
      ],
      "name": "ParticipantAdded",
      "type": "event"
    },
    {
      "anonymous": false,
      "inputs": [
        {
          "indexed": false,
          "internalType": "address",
          "name": "account",
          "type": "address"
        }
      ],
      "name": "Paused",
      "type": "event"
    },
    {
      "anonymous": false,
      "inputs": [
        {
          "indexed": true,
          "internalType": "bytes32",
          "name": "role",
          "type": "bytes32"
        },
        {
          "indexed": true,
          "internalType": "bytes32",
          "name": "previousAdminRole",
          "type": "bytes32"
        },
        {
          "indexed": true,
          "internalType": "bytes32",
          "name": "newAdminRole",
          "type": "bytes32"
        }
      ],
      "name": "RoleAdminChanged",
      "type": "event"
    },
    {
      "anonymous": false,
      "inputs": [
        {
          "indexed": true,
          "internalType": "bytes32",
          "name": "role",
          "type": "bytes32"
        },
        {
          "indexed": true,
          "internalType": "address",
          "name": "account",
          "type": "address"
        },
        {
          "indexed": true,
          "internalType": "address",
          "name": "sender",
          "type": "address"
        }
      ],
      "name": "RoleGranted",
      "type": "event"
    },
    {
      "anonymous": false,
      "inputs": [
        {
          "indexed": true,
          "internalType": "bytes32",
          "name": "role",
          "type": "bytes32"
        },
        {
          "indexed": true,
          "internalType": "address",
          "name": "account",
          "type": "address"
        },
        {
          "indexed": true,
          "internalType": "address",
          "name": "sender",
          "type": "address"
        }
      ],
      "name": "RoleRevoked",
      "type": "event"
    },
    {
      "anonymous": false,
      "inputs": [
        {
          "indexed": false,
          "internalType": "uint256",
          "name": "requestId",
          "type": "uint256"
        },
        {
          "indexed": true,
          "internalType": "bytes",
          "name": "publicKey",
          "type": "bytes"
        },
        {
          "indexed": false,
          "internalType": "bytes",
          "name": "message",
          "type": "bytes"
        }
      ],
      "name": "SignRequestAdded",
      "type": "event"
    },
    {
      "anonymous": false,
      "inputs": [
        {
          "indexed": false,
          "internalType": "uint256",
          "name": "requestId",
          "type": "uint256"
        },
        {
          "indexed": true,
          "internalType": "bytes",
          "name": "publicKey",
          "type": "bytes"
        },
        {
          "indexed": false,
          "internalType": "bytes",
          "name": "message",
          "type": "bytes"
        }
      ],
      "name": "SignRequestStarted",
      "type": "event"
    },
    {
      "anonymous": false,
      "inputs": [
        {
          "indexed": false,
          "internalType": "uint256",
          "name": "requestId",
          "type": "uint256"
        },
        {
          "indexed": true,
          "internalType": "bytes",
          "name": "publicKey",
          "type": "bytes"
        },
        {
          "indexed": false,
          "internalType": "string",
          "name": "nodeID",
          "type": "string"
        },
        {
          "indexed": false,
          "internalType": "uint256",
          "name": "amount",
          "type": "uint256"
        },
        {
          "indexed": false,
          "internalType": "uint256",
          "name": "startTime",
          "type": "uint256"
        },
        {
          "indexed": false,
          "internalType": "uint256",
          "name": "endTime",
          "type": "uint256"
        }
      ],
      "name": "StakeRequestAdded",
      "type": "event"
    },
    {
      "anonymous": false,
      "inputs": [
        {
          "indexed": false,
          "internalType": "uint256",
          "name": "requestId",
          "type": "uint256"
        },
        {
          "indexed": true,
          "internalType": "bytes",
          "name": "publicKey",
          "type": "bytes"
        },
        {
          "indexed": false,
          "internalType": "uint256[]",
          "name": "participantIndices",
          "type": "uint256[]"
        },
        {
          "indexed": false,
          "internalType": "string",
          "name": "nodeID",
          "type": "string"
        },
        {
          "indexed": false,
          "internalType": "uint256",
          "name": "amount",
          "type": "uint256"
        },
        {
          "indexed": false,
          "internalType": "uint256",
          "name": "startTime",
          "type": "uint256"
        },
        {
          "indexed": false,
          "internalType": "uint256",
          "name": "endTime",
          "type": "uint256"
        }
      ],
      "name": "StakeRequestStarted",
      "type": "event"
    },
    {
      "anonymous": false,
      "inputs": [
        {
          "indexed": false,
          "internalType": "address",
          "name": "account",
          "type": "address"
        }
      ],
      "name": "Unpaused",
      "type": "event"
    },
    {
      "inputs": [],
      "name": "DEFAULT_ADMIN_ROLE",
      "outputs": [
        {
          "internalType": "bytes32",
          "name": "",
          "type": "bytes32"
        }
      ],
      "stateMutability": "view",
      "type": "function"
    },
    {
      "inputs": [
        {
          "internalType": "bytes[]",
          "name": "publicKeys",
          "type": "bytes[]"
        },
        {
          "internalType": "uint256",
          "name": "threshold",
          "type": "uint256"
        }
      ],
      "name": "createGroup",
      "outputs": [],
      "stateMutability": "nonpayable",
      "type": "function"
    },
    {
      "inputs": [
        {
          "internalType": "bytes32",
          "name": "groupId",
          "type": "bytes32"
        }
      ],
      "name": "getGroup",
      "outputs": [
        {
          "internalType": "bytes[]",
          "name": "participants",
          "type": "bytes[]"
        },
        {
          "internalType": "uint256",
          "name": "threshold",
          "type": "uint256"
        }
      ],
      "stateMutability": "view",
      "type": "function"
    },
    {
      "inputs": [
        {
          "internalType": "bytes",
          "name": "publicKey",
          "type": "bytes"
        }
      ],
      "name": "getKey",
      "outputs": [
        {
          "components": [
            {
              "internalType": "bytes32",
              "name": "groupId",
              "type": "bytes32"
            },
            {
              "internalType": "bool",
              "name": "confirmed",
              "type": "bool"
            }
          ],
          "internalType": "struct IMpcManager.KeyInfo",
          "name": "keyInfo",
          "type": "tuple"
        }
      ],
      "stateMutability": "view",
      "type": "function"
    },
    {
      "inputs": [
        {
          "internalType": "bytes32",
          "name": "role",
          "type": "bytes32"
        }
      ],
      "name": "getRoleAdmin",
      "outputs": [
        {
          "internalType": "bytes32",
          "name": "",
          "type": "bytes32"
        }
      ],
      "stateMutability": "view",
      "type": "function"
    },
    {
      "inputs": [
        {
          "internalType": "bytes32",
          "name": "role",
          "type": "bytes32"
        },
        {
          "internalType": "uint256",
          "name": "index",
          "type": "uint256"
        }
      ],
      "name": "getRoleMember",
      "outputs": [
        {
          "internalType": "address",
          "name": "",
          "type": "address"
        }
      ],
      "stateMutability": "view",
      "type": "function"
    },
    {
      "inputs": [
        {
          "internalType": "bytes32",
          "name": "role",
          "type": "bytes32"
        }
      ],
      "name": "getRoleMemberCount",
      "outputs": [
        {
          "internalType": "uint256",
          "name": "",
          "type": "uint256"
        }
      ],
      "stateMutability": "view",
      "type": "function"
    },
    {
      "inputs": [
        {
          "internalType": "bytes32",
          "name": "role",
          "type": "bytes32"
        },
        {
          "internalType": "address",
          "name": "account",
          "type": "address"
        }
      ],
      "name": "grantRole",
      "outputs": [],
      "stateMutability": "nonpayable",
      "type": "function"
    },
    {
      "inputs": [
        {
          "internalType": "bytes32",
          "name": "role",
          "type": "bytes32"
        },
        {
          "internalType": "address",
          "name": "account",
          "type": "address"
        }
      ],
      "name": "hasRole",
      "outputs": [
        {
          "internalType": "bool",
          "name": "",
          "type": "bool"
        }
      ],
      "stateMutability": "view",
      "type": "function"
    },
    {
      "inputs": [
        {
          "internalType": "uint256",
          "name": "requestId",
          "type": "uint256"
        },
        {
          "internalType": "uint256",
          "name": "myIndex",
          "type": "uint256"
        }
      ],
      "name": "joinRequest",
      "outputs": [],
      "stateMutability": "nonpayable",
      "type": "function"
    },
    {
      "inputs": [],
      "name": "lastGenAddress",
      "outputs": [
        {
          "internalType": "address",
          "name": "",
          "type": "address"
        }
      ],
      "stateMutability": "view",
      "type": "function"
    },
    {
      "inputs": [],
      "name": "lastGenPubKey",
      "outputs": [
        {
          "internalType": "bytes",
          "name": "",
          "type": "bytes"
        }
      ],
      "stateMutability": "view",
      "type": "function"
    },
    {
      "inputs": [],
      "name": "paused",
      "outputs": [
        {
          "internalType": "bool",
          "name": "",
          "type": "bool"
        }
      ],
      "stateMutability": "view",
      "type": "function"
    },
    {
      "inputs": [
        {
          "internalType": "bytes32",
          "name": "role",
          "type": "bytes32"
        },
        {
          "internalType": "address",
          "name": "account",
          "type": "address"
        }
      ],
      "name": "renounceRole",
      "outputs": [],
      "stateMutability": "nonpayable",
      "type": "function"
    },
    {
      "inputs": [
        {
          "internalType": "bytes32",
          "name": "groupId",
          "type": "bytes32"
        },
        {
          "internalType": "uint256",
          "name": "myIndex",
          "type": "uint256"
        },
        {
          "internalType": "bytes",
          "name": "generatedPublicKey",
          "type": "bytes"
        }
      ],
      "name": "reportGeneratedKey",
      "outputs": [],
      "stateMutability": "nonpayable",
      "type": "function"
    },
    {
      "inputs": [
        {
          "internalType": "bytes32",
          "name": "groupId",
          "type": "bytes32"
        }
      ],
      "name": "requestKeygen",
      "outputs": [],
      "stateMutability": "nonpayable",
      "type": "function"
    },
    {
      "inputs": [
        {
          "internalType": "bytes",
          "name": "publicKey",
          "type": "bytes"
        },
        {
          "internalType": "bytes",
          "name": "message",
          "type": "bytes"
        }
      ],
      "name": "requestSign",
      "outputs": [],
      "stateMutability": "nonpayable",
      "type": "function"
    },
    {
      "inputs": [
        {
          "internalType": "string",
          "name": "nodeID",
          "type": "string"
        },
        {
          "internalType": "uint256",
          "name": "amount",
          "type": "uint256"
        },
        {
          "internalType": "uint256",
          "name": "startTime",
          "type": "uint256"
        },
        {
          "internalType": "uint256",
          "name": "endTime",
          "type": "uint256"
        }
      ],
      "name": "requestStake",
      "outputs": [],
      "stateMutability": "payable",
      "type": "function"
    },
    {
      "inputs": [
        {
          "internalType": "bytes32",
          "name": "role",
          "type": "bytes32"
        },
        {
          "internalType": "address",
          "name": "account",
          "type": "address"
        }
      ],
      "name": "revokeRole",
      "outputs": [],
      "stateMutability": "nonpayable",
      "type": "function"
    },
    {
      "inputs": [
        {
          "internalType": "address",
          "name": "avaLidoAddress",
          "type": "address"
        }
      ],
      "name": "setAvaLidoAddress",
      "outputs": [],
      "stateMutability": "nonpayable",
      "type": "function"
    },
    {
      "inputs": [
        {
          "internalType": "bytes4",
          "name": "interfaceId",
          "type": "bytes4"
        }
      ],
      "name": "supportsInterface",
      "outputs": [
        {
          "internalType": "bool",
          "name": "",
          "type": "bool"
        }
      ],
      "stateMutability": "view",
      "type": "function"
    }
  ],
  "bytecode": {
    "object": "0x60806040523480156200001157600080fd5b506000805460ff19168155600180556200002c903362000032565b6200019b565b6200003e828262000042565b5050565b6200005982826200008560201b620014271760201c565b600082815260036020908152604090912062000080918390620014ad62000129821b17901c565b505050565b60008281526002602090815260408083206001600160a01b038516845290915290205460ff166200003e5760008281526002602090815260408083206001600160a01b03851684529091529020805460ff19166001179055620000e53390565b6001600160a01b0316816001600160a01b0316837f2f8788117e7eff1d82e926ec794901d17c78024a50270940304540a733656f0d60405160405180910390a45050565b600062000140836001600160a01b03841662000149565b90505b92915050565b6000818152600183016020526040812054620001925750815460018181018455600084815260208082209093018490558454848252828601909352604090209190915562000143565b50600062000143565b61262780620001ab6000396000f3fe60806040526004361061012a5760003560e01c806389060b34116100ab578063ca15c8731161006f578063ca15c87314610369578063d547741f14610389578063dd6bd149146103a9578063e661d90d146103c9578063ee34ad00146103e9578063fae3a93c1461040957600080fd5b806389060b34146102bb5780639010d07c146102ce57806391d1485414610306578063a217fddf14610326578063b567d4ba1461033b57600080fd5b80632f7e3d17116100f25780632f7e3d171461020657806336568abe146102265780635c975abb1461024657806378cdefae1461025e5780637fed84f21461027e57600080fd5b806301ffc9a71461012f5780630d45d2f314610164578063248a9ca3146101865780632ed92550146101c45780632f2ff15d146101e6575b600080fd5b34801561013b57600080fd5b5061014f61014a366004611d8b565b610429565b60405190151581526020015b60405180910390f35b34801561017057600080fd5b50610179610454565b60405161015b9190611e0d565b34801561019257600080fd5b506101b66101a1366004611e20565b60009081526002602052604090206001015490565b60405190815260200161015b565b3480156101d057600080fd5b506101e46101df366004611e39565b6104e2565b005b3480156101f257600080fd5b506101e4610201366004611e77565b6108ce565b34801561021257600080fd5b506101e4610221366004611eec565b6108f8565b34801561023257600080fd5b506101e4610241366004611e77565b610a3b565b34801561025257600080fd5b5060005460ff1661014f565b34801561026a57600080fd5b506101e4610279366004611f58565b610ab9565b34801561028a57600080fd5b5061029e610299366004611f73565b610b02565b60408051825181526020928301511515928101929092520161015b565b6101e46102c9366004611fb5565b610b5a565b3480156102da57600080fd5b506102ee6102e9366004611e39565b610d1a565b6040516001600160a01b03909116815260200161015b565b34801561031257600080fd5b5061014f610321366004611e77565b610d39565b34801561033257600080fd5b506101b6600081565b34801561034757600080fd5b5061035b610356366004611e20565b610d64565b60405161015b92919061200f565b34801561037557600080fd5b506101b6610384366004611e20565b610f13565b34801561039557600080fd5b506101e46103a4366004611e77565b610f2a565b3480156103b557600080fd5b506101e46103c4366004612078565b610f4f565b3480156103d557600080fd5b506101e46103e4366004611e20565b61122b565b3480156103f557600080fd5b506005546102ee906001600160a01b031681565b34801561041557600080fd5b506101e46104243660046120f3565b611280565b60006001600160e01b03198216635a05180f60e01b148061044e575061044e826114c2565b92915050565b600480546104619061213a565b80601f016020809104026020016040519081016040528092919081815260200182805461048d9061213a565b80156104da5780601f106104af576101008083540402835291602001916104da565b820191906000526020600020905b8154815290600101906020018083116104bd57829003601f168201915b505050505081565b6000828152600c60205260408120805490919082906105009061213a565b90501161054d5760405162461bcd60e51b81526020600482015260166024820152752932b8bab2b9ba103237b2b9b713ba1032bc34b9ba1760511b60448201526064015b60405180910390fd5b6000600a826000016040516105629190612175565b90815260408051602092819003830181208183019092528154815260019091015460ff16151591810182905291506105f85760405162461bcd60e51b815260206004820152603360248201527f5075626c6963206b657920646f65736e2774206578697374206f7220686173206044820152723737ba103132b2b71031b7b73334b936b2b21760691b6064820152608401610544565b805160009081526008602052604090205460028301548110156106545760405162461bcd60e51b815260206004820152601460248201527321b0b73737ba103537b4b71030b73cb6b7b9329760611b6044820152606401610544565b815161066090856114f7565b60005b60028401548110156106e25784846002018281548110610685576106856121e7565b906000526020600020015414156106d05760405162461bcd60e51b815260206004820152600f60248201526e20b63932b0b23c903537b4b732b21760891b6044820152606401610544565b806106da81612213565b915050610663565b5060028301805460018181018355600092835260209092200185905561070990829061222e565b600284015414156108c75760008360010180546107259061213a565b905011156107845760405161073b908490612175565b60405180910390207f279ae2c17b7204cd61039a5a8ea3db27acc71416ea84fb62e95335c8b24ad3038685600101604051610777929190612246565b60405180910390a26108c7565b6000858152600d60205260408082208151608081019092528054829082906107ab9061213a565b80601f01602080910402602001604051908101604052809291908181526020018280546107d79061213a565b80156108245780601f106107f957610100808354040283529160200191610824565b820191906000526020600020905b81548152906001019060200180831161080757829003601f168201915b50505050508152602001600182015481526020016002820154815260200160038201548152505090506000816020015111156108c557604051610868908590612175565b60405180910390207f288b3cb79b7b3694315e9132713d254471d922b469ac4c7f26fee7fe49f30486878660020184600001518560200151866040015187606001516040516108bc969594939291906122d3565b60405180910390a25b505b5050505050565b6000828152600260205260409020600101546108e981611656565b6108f38383611663565b505050565b6006546001600160a01b0316331461094b5760405162461bcd60e51b815260206004820152601660248201527521b0b63632b91034b9903737ba1020bb30a634b2379760511b6044820152606401610544565b6000600a858560405161095f92919061234e565b90815260408051602092819003830181208183019092528154815260019091015460ff16151591810182905291506109a95760405162461bcd60e51b81526004016105449061235e565b60006109b3611685565b6000818152600c602052604090209091506109cf818888611c7e565b506109de600182018686611c7e565b5086866040516109ef92919061234e565b60405180910390207ffd47ace1305a71239c6719afa87da2a0b202b0d7d727aad7f69ad1a934b22628838787604051610a2a939291906123d3565b60405180910390a250505050505050565b6001600160a01b0381163314610aab5760405162461bcd60e51b815260206004820152602f60248201527f416363657373436f6e74726f6c3a2063616e206f6e6c792072656e6f756e636560448201526e103937b632b9903337b91039b2b63360891b6064820152608401610544565b610ab582826116a7565b5050565b610ac4600033610d39565b610ae05760405162461bcd60e51b8152600401610544906123f6565b600680546001600160a01b0319166001600160a01b0392909216919091179055565b6040805180820190915260008082526020820152600a8383604051610b2892919061234e565b9081526040805191829003602090810183208383019092528154835260019091015460ff161515908201529392505050565b6006546001600160a01b03163314610bad5760405162461bcd60e51b815260206004820152601660248201527521b0b63632b91034b9903737ba1020bb30a634b2379760511b6044820152606401610544565b6005546001600160a01b0316610c055760405162461bcd60e51b815260206004820152601f60248201527f4b657920686173206e6f74206265656e2067656e657261746564207965742e006044820152606401610544565b823414610c475760405162461bcd60e51b815260206004820152601060248201526f24b731b7b93932b1ba103b30b63ab29760811b6044820152606401610544565b6005546040516001600160a01b039091169084156108fc029085906000818181858888f19350505050158015610c81573d6000803e3d6000fd5b506108c760048054610c929061213a565b80601f0160208091040260200160405190810160405280929190818152602001828054610cbe9061213a565b8015610d0b5780601f10610ce057610100808354040283529160200191610d0b565b820191906000526020600020905b815481529060010190602001808311610cee57829003601f168201915b505050505086868686866116c9565b6000828152600360205260408120610d3290836117e8565b9392505050565b60009182526002602090815260408084206001600160a01b0393909316845291905290205460ff1690565b6000818152600760205260408120546060919080610dbb5760405162461bcd60e51b815260206004820152601460248201527323b937bab8103237b2b9b713ba1032bc34b9ba1760611b6044820152606401610544565b60008167ffffffffffffffff811115610dd657610dd6612424565b604051908082528060200260200182016040528015610e0957816020015b6060815260200190600190039081610df45790505b5060008681526008602052604081205494509091505b82811015610f0857600086815260096020526040812090610e4183600161222e565b81526020019081526020016000208054610e5a9061213a565b80601f0160208091040260200160405190810160405280929190818152602001828054610e869061213a565b8015610ed35780601f10610ea857610100808354040283529160200191610ed3565b820191906000526020600020905b815481529060010190602001808311610eb657829003601f168201915b5050505050828281518110610eea57610eea6121e7565b60200260200101819052508080610f0090612213565b915050610e1f565b508093505050915091565b600081815260036020526040812061044e906117f4565b600082815260026020526040902060010154610f4581611656565b6108f383836116a7565b610f5a600033610d39565b610f765760405162461bcd60e51b8152600401610544906123f6565b60018211610fd75760405162461bcd60e51b815260206004820152602860248201527f412067726f75702072657175697265732032206f72206d6f726520706172746960448201526731b4b830b73a399760c11b6064820152608401610544565b60018110158015610fe757508181105b6110275760405162461bcd60e51b8152602060048201526011602482015270125b9d985b1a59081d1a1c995cda1bdb19607a1b6044820152606401610544565b604080516020810183905260009101604051602081830303815290604052905060005b838110156110ad5781858583818110611065576110656121e7565b9050602002810190611077919061243a565b60405160200161108993929190612481565b604051602081830303815290604052915080806110a590612213565b91505061104a565b50805160208083019190912060008181526007909252604090912054801561110f5760405162461bcd60e51b815260206004820152601560248201527423b937bab81030b63932b0b23c9032bc34b9ba399760591b6044820152606401610544565b6000828152600760209081526040808320889055600890915281208590555b8581101561122257868682818110611148576111486121e7565b905060200281019061115a919061243a565b60008581526009602052604081209061117485600161222e565b8152602001908152602001600020919061118f929190611c7e565b508686828181106111a2576111a26121e7565b90506020028101906111b4919061243a565b6040516111c292919061234e565b6040519081900390207f39f1368dd39c286ea788ed1ca8b79dddbdad29f340f0100a5f2a60bd4d2f269a846111f884600161222e565b6040805192835260208301919091520160405180910390a28061121a81612213565b91505061112e565b50505050505050565b611236600033610d39565b6112525760405162461bcd60e51b8152600401610544906123f6565b60405181907f5e169d3e7bcbd6275f0072b5b8ebc2971595796ad9715cabd718a8237baa732790600090a250565b838361128c82826114f7565b6000600a85856040516112a092919061234e565b908152604051908190036020019020600181015490915060ff16156113235760405162461bcd60e51b815260206004820152603360248201527f4b65792068617320616c7265616479206265656e20636f6e6669726d656420626044820152723c9030b636103830b93a34b1b4b830b73a399760691b6064820152608401610544565b6001600b868660405161133792919061234e565b908152604080516020928190038301902060008a815292529020805460ff191691151591909117905561136b8786866117fe565b15611222578681556001808201805460ff1916909117905561138f60048686611c7e565b506113cf85858080601f01602080910402602001604051908101604052809392919081815260200183838082843760009201919091525061188692505050565b600560006101000a8154816001600160a01b0302191690836001600160a01b03160217905550867f767b7aa89023ecd2db985822c15a32856d9106f50b5b2d5a65aa0f30d3cf457d8686604051610a2a9291906124a9565b6114318282610d39565b610ab55760008281526002602090815260408083206001600160a01b03851684529091529020805460ff191660011790556114693390565b6001600160a01b0316816001600160a01b0316837f2f8788117e7eff1d82e926ec794901d17c78024a50270940304540a733656f0d60405160405180910390a45050565b6000610d32836001600160a01b038416611896565b60006001600160e01b03198216637965db0b60e01b148061044e57506301ffc9a760e01b6001600160e01b031983161461044e565b60008281526009602090815260408083208484529091528120805461151b9061213a565b80601f01602080910402602001604051908101604052809291908181526020018280546115479061213a565b80156115945780601f1061156957610100808354040283529160200191611594565b820191906000526020600020905b81548152906001019060200180831161157757829003601f168201915b5050505050905060008151116115ec5760405162461bcd60e51b815260206004820152601960248201527f496e76616c69642067726f75704964206f7220696e6465782e000000000000006044820152606401610544565b8051602082012060008190526001600160a01b03811633146116505760405162461bcd60e51b815260206004820152601c60248201527f43616c6c6572206973206e6f7420612067726f7570206d656d626572000000006044820152606401610544565b50505050565b61166081336118e5565b50565b61166d8282611427565b60008281526003602052604090206108f390826114ad565b60006001600e600082825461169a919061222e565b9091555050600e54919050565b6116b18282611949565b60008281526003602052604090206108f390826119b0565b6000600a876040516116db91906124c5565b90815260408051602092819003830181208183019092528154815260019091015460ff16151591810182905291506117255760405162461bcd60e51b81526004016105449061235e565b600061172f611685565b6000818152600c602090815260409091208a5192935091611755918391908c0190611d02565b506000828152600d6020526040902061176f818a8a611c7e565b50600181018790556002810186905560038101859055604051611793908b906124c5565b60405180910390207f18d59ead2751a952ffa140860eedfe61eefb762649f64d9a222b9c8e2b7bf594848b8b8b8b8b6040516117d4969594939291906124e1565b60405180910390a250505050505050505050565b6000610d3283836119c5565b600061044e825490565b600083815260076020526040812054815b8181101561187a57600b858560405161182992919061234e565b908152604051908190036020019020600061184583600161222e565b815260208101919091526040016000205460ff1661186857600092505050610d32565b8061187281612213565b91505061180f565b50600195945050505050565b8051602090910120600081905290565b60008181526001830160205260408120546118dd5750815460018181018455600084815260208082209093018490558454848252828601909352604090209190915561044e565b50600061044e565b6118ef8282610d39565b610ab557611907816001600160a01b031660146119ef565b6119128360206119ef565b604051602001611923929190612519565b60408051601f198184030181529082905262461bcd60e51b825261054491600401611e0d565b6119538282610d39565b15610ab55760008281526002602090815260408083206001600160a01b0385168085529252808320805460ff1916905551339285917ff6391f5c32d9c69d2a47ea670b442974b53935d1edc7fd64eb21e047a839171b9190a45050565b6000610d32836001600160a01b038416611b8b565b60008260000182815481106119dc576119dc6121e7565b9060005260206000200154905092915050565b606060006119fe83600261258e565b611a0990600261222e565b67ffffffffffffffff811115611a2157611a21612424565b6040519080825280601f01601f191660200182016040528015611a4b576020820181803683370190505b509050600360fc1b81600081518110611a6657611a666121e7565b60200101906001600160f81b031916908160001a905350600f60fb1b81600181518110611a9557611a956121e7565b60200101906001600160f81b031916908160001a9053506000611ab984600261258e565b611ac490600161222e565b90505b6001811115611b3c576f181899199a1a9b1b9c1cb0b131b232b360811b85600f1660108110611af857611af86121e7565b1a60f81b828281518110611b0e57611b0e6121e7565b60200101906001600160f81b031916908160001a90535060049490941c93611b35816125ad565b9050611ac7565b508315610d325760405162461bcd60e51b815260206004820181905260248201527f537472696e67733a20686578206c656e67746820696e73756666696369656e746044820152606401610544565b60008181526001830160205260408120548015611c74576000611baf6001836125c4565b8554909150600090611bc3906001906125c4565b9050818114611c28576000866000018281548110611be357611be36121e7565b9060005260206000200154905080876000018481548110611c0657611c066121e7565b6000918252602080832090910192909255918252600188019052604090208390555b8554869080611c3957611c396125db565b60019003818190600052602060002001600090559055856001016000868152602001908152602001600020600090556001935050505061044e565b600091505061044e565b828054611c8a9061213a565b90600052602060002090601f016020900481019282611cac5760008555611cf2565b82601f10611cc55782800160ff19823516178555611cf2565b82800160010185558215611cf2579182015b82811115611cf2578235825591602001919060010190611cd7565b50611cfe929150611d76565b5090565b828054611d0e9061213a565b90600052602060002090601f016020900481019282611d305760008555611cf2565b82601f10611d4957805160ff1916838001178555611cf2565b82800160010185558215611cf2579182015b82811115611cf2578251825591602001919060010190611d5b565b5b80821115611cfe5760008155600101611d77565b600060208284031215611d9d57600080fd5b81356001600160e01b031981168114610d3257600080fd5b60005b83811015611dd0578181015183820152602001611db8565b838111156116505750506000910152565b60008151808452611df9816020860160208601611db5565b601f01601f19169290920160200192915050565b602081526000610d326020830184611de1565b600060208284031215611e3257600080fd5b5035919050565b60008060408385031215611e4c57600080fd5b50508035926020909101359150565b80356001600160a01b0381168114611e7257600080fd5b919050565b60008060408385031215611e8a57600080fd5b82359150611e9a60208401611e5b565b90509250929050565b60008083601f840112611eb557600080fd5b50813567ffffffffffffffff811115611ecd57600080fd5b602083019150836020828501011115611ee557600080fd5b9250929050565b60008060008060408587031215611f0257600080fd5b843567ffffffffffffffff80821115611f1a57600080fd5b611f2688838901611ea3565b90965094506020870135915080821115611f3f57600080fd5b50611f4c87828801611ea3565b95989497509550505050565b600060208284031215611f6a57600080fd5b610d3282611e5b565b60008060208385031215611f8657600080fd5b823567ffffffffffffffff811115611f9d57600080fd5b611fa985828601611ea3565b90969095509350505050565b600080600080600060808688031215611fcd57600080fd5b853567ffffffffffffffff811115611fe457600080fd5b611ff088828901611ea3565b9099909850602088013597604081013597506060013595509350505050565b6000604082016040835280855180835260608501915060608160051b8601019250602080880160005b8381101561206657605f19888703018552612054868351611de1565b95509382019390820190600101612038565b50509490940194909452949350505050565b60008060006040848603121561208d57600080fd5b833567ffffffffffffffff808211156120a557600080fd5b818601915086601f8301126120b957600080fd5b8135818111156120c857600080fd5b8760208260051b85010111156120dd57600080fd5b6020928301989097509590910135949350505050565b6000806000806060858703121561210957600080fd5b8435935060208501359250604085013567ffffffffffffffff81111561212e57600080fd5b611f4c87828801611ea3565b600181811c9082168061214e57607f821691505b6020821081141561216f57634e487b7160e01b600052602260045260246000fd5b50919050565b60008083546121838161213a565b6001828116801561219b57600181146121ac576121db565b60ff198416875282870194506121db565b8760005260208060002060005b858110156121d25781548a8201529084019082016121b9565b50505082870194505b50929695505050505050565b634e487b7160e01b600052603260045260246000fd5b634e487b7160e01b600052601160045260246000fd5b6000600019821415612227576122276121fd565b5060010190565b60008219821115612241576122416121fd565b500190565b82815260006020604081840152600084546122608161213a565b80604087015260606001808416600081146122825760018114612296576122c4565b60ff198516898401526080890195506122c4565b896000528660002060005b858110156122bc5781548b82018601529083019088016122a1565b8a0184019650505b50939998505050505050505050565b600060c08201888352602060c08185015281895480845260e0860191508a60005282600020935060005b81811015612319578454835260019485019492840192016122fd565b5050848103604086015261232d818a611de1565b606086019890985250505050608081019290925260a0909101529392505050565b8183823760009101908152919050565b6020808252602c908201527f4b657920646f65736e2774206578697374206f7220686173206e6f742062656560408201526b371031b7b73334b936b2b21760a11b606082015260800190565b81835281816020850137506000828201602090810191909152601f909101601f19169091010190565b8381526040602082015260006123ed6040830184866123aa565b95945050505050565b60208082526014908201527321b0b63632b91034b9903737ba1030b236b4b71760611b604082015260600190565b634e487b7160e01b600052604160045260246000fd5b6000808335601e1984360301811261245157600080fd5b83018035915067ffffffffffffffff82111561246c57600080fd5b602001915036819003821315611ee557600080fd5b60008451612493818460208901611db5565b8201838582376000930192835250909392505050565b6020815260006124bd6020830184866123aa565b949350505050565b600082516124d7818460208701611db5565b9190910192915050565b86815260a0602082015260006124fb60a0830187896123aa565b60408301959095525060608101929092526080909101529392505050565b7f416363657373436f6e74726f6c3a206163636f756e7420000000000000000000815260008351612551816017850160208801611db5565b7001034b99036b4b9b9b4b733903937b6329607d1b6017918401918201528351612582816028840160208801611db5565b01602801949350505050565b60008160001904831182151516156125a8576125a86121fd565b500290565b6000816125bc576125bc6121fd565b506000190190565b6000828210156125d6576125d66121fd565b500390565b634e487b7160e01b600052603160045260246000fdfea2646970667358221220e7c5a7db8d3580d94d5ccb600d9d30be3cfcf04e4a7147803b523740593f11f764736f6c634300080a0033",
    "linkReferences": {}
  },
  "methodIdentifiers": {
    "DEFAULT_ADMIN_ROLE()": "a217fddf",
    "createGroup(bytes[],uint256)": "dd6bd149",
    "getGroup(bytes32)": "b567d4ba",
    "getKey(bytes)": "7fed84f2",
    "getRoleAdmin(bytes32)": "248a9ca3",
    "getRoleMember(bytes32,uint256)": "9010d07c",
    "getRoleMemberCount(bytes32)": "ca15c873",
    "grantRole(bytes32,address)": "2f2ff15d",
    "hasRole(bytes32,address)": "91d14854",
    "joinRequest(uint256,uint256)": "2ed92550",
    "lastGenAddress()": "ee34ad00",
    "lastGenPubKey()": "0d45d2f3",
    "paused()": "5c975abb",
    "renounceRole(bytes32,address)": "36568abe",
    "reportGeneratedKey(bytes32,uint256,bytes)": "fae3a93c",
    "requestKeygen(bytes32)": "e661d90d",
    "requestSign(bytes,bytes)": "2f7e3d17",
    "requestStake(string,uint256,uint256,uint256)": "89060b34",
    "revokeRole(bytes32,address)": "d547741f",
    "setAvaLidoAddress(address)": "78cdefae",
    "supportsInterface(bytes4)": "01ffc9a7"
  },
  "id": 25
}